{
  "_format": "hh-sol-artifact-1",
  "contractName": "StakeFlayer",
  "sourceName": "contracts/StakeFlayer.sol",
  "abi": [
    {
      "inputs": [
        {
          "internalType": "contract FlayerToken",
          "name": "_tokenAddress",
          "type": "address"
        }
      ],
      "stateMutability": "nonpayable",
      "type": "constructor"
    },
    {
      "inputs": [
        {
          "internalType": "address",
          "name": "_owner",
          "type": "address"
        }
      ],
      "name": "checkStaked",
      "outputs": [
        {
          "internalType": "uint256",
          "name": "",
          "type": "uint256"
        }
      ],
      "stateMutability": "view",
      "type": "function"
    },
    {
      "inputs": [
        {
          "internalType": "address",
          "name": "_beneficiary",
          "type": "address"
        }
      ],
      "name": "earnedRewards",
      "outputs": [
        {
          "internalType": "uint256",
          "name": "",
          "type": "uint256"
        }
      ],
      "stateMutability": "view",
      "type": "function"
    },
    {
      "inputs": [
        {
          "internalType": "uint256",
          "name": "_amount",
          "type": "uint256"
        }
      ],
      "name": "stakeToken",
      "outputs": [],
      "stateMutability": "payable",
      "type": "function"
    },
    {
      "inputs": [
        {
          "internalType": "address",
          "name": "",
          "type": "address"
        }
      ],
      "name": "staked",
      "outputs": [
        {
          "internalType": "address",
          "name": "beneficiary",
          "type": "address"
        },
        {
          "internalType": "uint256",
          "name": "tokens",
          "type": "uint256"
        },
        {
          "internalType": "uint256",
          "name": "startTime",
          "type": "uint256"
        }
      ],
      "stateMutability": "view",
      "type": "function"
    },
    {
      "inputs": [],
      "name": "token",
      "outputs": [
        {
          "internalType": "contract FlayerToken",
          "name": "",
          "type": "address"
        }
      ],
      "stateMutability": "view",
      "type": "function"
    },
    {
      "inputs": [
        {
          "internalType": "address",
          "name": "_beneficiary",
          "type": "address"
        }
      ],
      "name": "unStakeToken",
      "outputs": [],
      "stateMutability": "payable",
      "type": "function"
    }
  ],
  "bytecode": "0x60806040523480156200001157600080fd5b506040516200134638038062001346833981810160405281019062000037919062000095565b806000806101000a81548173ffffffffffffffffffffffffffffffffffffffff021916908373ffffffffffffffffffffffffffffffffffffffff1602179055505062000123565b6000815190506200008f8162000109565b92915050565b600060208284031215620000a857600080fd5b6000620000b8848285016200007e565b91505092915050565b6000620000ce82620000e9565b9050919050565b6000620000e282620000c1565b9050919050565b600073ffffffffffffffffffffffffffffffffffffffff82169050919050565b6200011481620000d5565b81146200012057600080fd5b50565b61121380620001336000396000f3fe6080604052600436106100555760003560e01c8063247f8e141461005a57806382d366d01461009757806398807d84146100d4578063afc1844114610113578063cda6b8471461012f578063fc0c546a1461014b575b600080fd5b34801561006657600080fd5b50610081600480360381019061007c9190610a92565b610176565b60405161008e9190610d21565b60405180910390f35b3480156100a357600080fd5b506100be60048036038101906100b99190610a92565b6101c2565b6040516100cb9190610d21565b60405180910390f35b3480156100e057600080fd5b506100fb60048036038101906100f69190610a92565b610302565b60405161010a93929190610c4f565b60405180910390f35b61012d60048036038101906101289190610a92565b61034c565b005b61014960048036038101906101449190610ae4565b61070d565b005b34801561015757600080fd5b50610160610a1a565b60405161016d9190610c86565b60405180910390f35b6000600160008373ffffffffffffffffffffffffffffffffffffffff1673ffffffffffffffffffffffffffffffffffffffff168152602001908152602001600020600101549050919050565b600080600290506000600160008573ffffffffffffffffffffffffffffffffffffffff1673ffffffffffffffffffffffffffffffffffffffff16815260200190815260200160002060020154905060006018603c8084426102239190610f9f565b61022d9190610da3565b6102379190610da3565b6102419190610da3565b9050601e8110158015610255575060b48111155b156102635760059250610294565b60b4811015801561027657506101688111155b1561028457600a9250610293565b610168811061029257600f92505b5b5b600060648461ffff16600160008973ffffffffffffffffffffffffffffffffffffffff1673ffffffffffffffffffffffffffffffffffffffff168152602001908152602001600020600101546102ea9190610f45565b6102f49190610da3565b905080945050505050919050565b60016020528060005260406000206000915090508060000160009054906101000a900473ffffffffffffffffffffffffffffffffffffffff16908060010154908060020154905083565b8073ffffffffffffffffffffffffffffffffffffffff163373ffffffffffffffffffffffffffffffffffffffff16146103ba576040517f08c379a00000000000000000000000000000000000000000000000000000000081526004016103b190610d01565b60405180910390fd5b6000600160008373ffffffffffffffffffffffffffffffffffffffff1673ffffffffffffffffffffffffffffffffffffffff168152602001908152602001600020600101541161043f576040517f08c379a000000000000000000000000000000000000000000000000000000000815260040161043690610ca1565b60405180910390fd5b60006018603c80600160008673ffffffffffffffffffffffffffffffffffffffff1673ffffffffffffffffffffffffffffffffffffffff16815260200190815260200160002060020154426104949190610f9f565b61049e9190610da3565b6104a89190610da3565b6104b29190610da3565b9050601e8110156104f8576040517f08c379a00000000000000000000000000000000000000000000000000000000081526004016104ef90610ce1565b60405180910390fd5b60008054906101000a900473ffffffffffffffffffffffffffffffffffffffff1673ffffffffffffffffffffffffffffffffffffffff166340c10f193061053e856101c2565b6040518363ffffffff1660e01b815260040161055b929190610c26565b600060405180830381600087803b15801561057557600080fd5b505af1158015610589573d6000803e3d6000fd5b5050505060008054906101000a900473ffffffffffffffffffffffffffffffffffffffff1673ffffffffffffffffffffffffffffffffffffffff1663a9059cbb836105d3856101c2565b600160008773ffffffffffffffffffffffffffffffffffffffff1673ffffffffffffffffffffffffffffffffffffffff168152602001908152602001600020600101546106209190610d4d565b6040518363ffffffff1660e01b815260040161063d929190610c26565b602060405180830381600087803b15801561065757600080fd5b505af115801561066b573d6000803e3d6000fd5b505050506040513d601f19601f8201168201806040525081019061068f9190610abb565b50600160008373ffffffffffffffffffffffffffffffffffffffff1673ffffffffffffffffffffffffffffffffffffffff168152602001908152602001600020600080820160006101000a81549073ffffffffffffffffffffffffffffffffffffffff02191690556001820160009055600282016000905550505050565b600073ffffffffffffffffffffffffffffffffffffffff16600160003373ffffffffffffffffffffffffffffffffffffffff1673ffffffffffffffffffffffffffffffffffffffff16815260200190815260200160002060000160009054906101000a900473ffffffffffffffffffffffffffffffffffffffff1673ffffffffffffffffffffffffffffffffffffffff16146107de576040517f08c379a00000000000000000000000000000000000000000000000000000000081526004016107d590610cc1565b60405180910390fd5b60008060009054906101000a900473ffffffffffffffffffffffffffffffffffffffff1673ffffffffffffffffffffffffffffffffffffffff1663313ce5676040518163ffffffff1660e01b815260040160206040518083038186803b15801561084757600080fd5b505afa15801561085b573d6000803e3d6000fd5b505050506040513d601f19601f8201168201806040525081019061087f9190610b0d565b600a61088b9190610e27565b826108969190610f45565b905060405180606001604052803373ffffffffffffffffffffffffffffffffffffffff16815260200182815260200142815250600160003373ffffffffffffffffffffffffffffffffffffffff1673ffffffffffffffffffffffffffffffffffffffff16815260200190815260200160002060008201518160000160006101000a81548173ffffffffffffffffffffffffffffffffffffffff021916908373ffffffffffffffffffffffffffffffffffffffff160217905550602082015181600101556040820151816002015590505060008054906101000a900473ffffffffffffffffffffffffffffffffffffffff1673ffffffffffffffffffffffffffffffffffffffff166323b872dd3330846040518463ffffffff1660e01b81526004016109c393929190610bef565b602060405180830381600087803b1580156109dd57600080fd5b505af11580156109f1573d6000803e3d6000fd5b505050506040513d601f19601f82011682018060405250810190610a159190610abb565b505050565b60008054906101000a900473ffffffffffffffffffffffffffffffffffffffff1681565b600081359050610a4d81611181565b92915050565b600081519050610a6281611198565b92915050565b600081359050610a77816111af565b92915050565b600081519050610a8c816111c6565b92915050565b600060208284031215610aa457600080fd5b6000610ab284828501610a3e565b91505092915050565b600060208284031215610acd57600080fd5b6000610adb84828501610a53565b91505092915050565b600060208284031215610af657600080fd5b6000610b0484828501610a68565b91505092915050565b600060208284031215610b1f57600080fd5b6000610b2d84828501610a7d565b91505092915050565b610b3f81610fd3565b82525050565b610b4e81611028565b82525050565b6000610b61601f83610d3c565b9150610b6c826110b7565b602082019050919050565b6000610b84600e83610d3c565b9150610b8f826110e0565b602082019050919050565b6000610ba7602b83610d3c565b9150610bb282611109565b604082019050919050565b6000610bca601c83610d3c565b9150610bd582611158565b602082019050919050565b610be981611011565b82525050565b6000606082019050610c046000830186610b36565b610c116020830185610b36565b610c1e6040830184610be0565b949350505050565b6000604082019050610c3b6000830185610b36565b610c486020830184610be0565b9392505050565b6000606082019050610c646000830186610b36565b610c716020830185610be0565b610c7e6040830184610be0565b949350505050565b6000602082019050610c9b6000830184610b45565b92915050565b60006020820190508181036000830152610cba81610b54565b9050919050565b60006020820190508181036000830152610cda81610b77565b9050919050565b60006020820190508181036000830152610cfa81610b9a565b9050919050565b60006020820190508181036000830152610d1a81610bbd565b9050919050565b6000602082019050610d366000830184610be0565b92915050565b600082825260208201905092915050565b6000610d5882611011565b9150610d6383611011565b9250827fffffffffffffffffffffffffffffffffffffffffffffffffffffffffffffffff03821115610d9857610d9761104c565b5b828201905092915050565b6000610dae82611011565b9150610db983611011565b925082610dc957610dc861107b565b5b828204905092915050565b6000808291508390505b6001851115610e1e57808604811115610dfa57610df961104c565b5b6001851615610e095780820291505b8081029050610e17856110aa565b9450610dde565b94509492505050565b6000610e3282611011565b9150610e3d8361101b565b9250610e6a7fffffffffffffffffffffffffffffffffffffffffffffffffffffffffffffffff8484610e72565b905092915050565b600082610e825760019050610f3e565b81610e905760009050610f3e565b8160018114610ea65760028114610eb057610edf565b6001915050610f3e565b60ff841115610ec257610ec161104c565b5b8360020a915084821115610ed957610ed861104c565b5b50610f3e565b5060208310610133831016604e8410600b8410161715610f145782820a905083811115610f0f57610f0e61104c565b5b610f3e565b610f218484846001610dd4565b92509050818404811115610f3857610f3761104c565b5b81810290505b9392505050565b6000610f5082611011565b9150610f5b83611011565b9250817fffffffffffffffffffffffffffffffffffffffffffffffffffffffffffffffff0483118215151615610f9457610f9361104c565b5b828202905092915050565b6000610faa82611011565b9150610fb583611011565b925082821015610fc857610fc761104c565b5b828203905092915050565b6000610fde82610ff1565b9050919050565b60008115159050919050565b600073ffffffffffffffffffffffffffffffffffffffff82169050919050565b6000819050919050565b600060ff82169050919050565b60006110338261103a565b9050919050565b600061104582610ff1565b9050919050565b7f4e487b7100000000000000000000000000000000000000000000000000000000600052601160045260246000fd5b7f4e487b7100000000000000000000000000000000000000000000000000000000600052601260045260246000fd5b60008160011c9050919050565b7f596f7520646f6e2774206861766520616e7920746f6b656e207374616b656400600082015250565b7f616c7265616479207374616b6564000000000000000000000000000000000000600082015250565b7f4d696e696d756d207374616b696e672074696d65283330206461797329206e6f60008201527f7420636f6d706c65746564000000000000000000000000000000000000000000602082015250565b7f4f6e6c79207374616b65206f776e65722063616e20756e7374616b6500000000600082015250565b61118a81610fd3565b811461119557600080fd5b50565b6111a181610fe5565b81146111ac57600080fd5b50565b6111b881611011565b81146111c357600080fd5b50565b6111cf8161101b565b81146111da57600080fd5b5056fea2646970667358221220f86d357e9d4a470536a3c0f94cce705da2fc92f47f7a9da4df41d968e1cadfc064736f6c63430008040033",
  "linkReferences": {},
  "deployedLinkReferences": {}
}