{
  "_format": "hh-sol-artifact-1",
  "contractName": "StakeFlayer",
  "sourceName": "contracts/StakeFlayer.sol",
  "abi": [
    {
      "inputs": [
        {
          "internalType": "contract FlayerToken",
          "name": "_tokenAddress",
          "type": "address"
        }
      ],
      "stateMutability": "nonpayable",
      "type": "constructor"
    },
    {
      "inputs": [
        {
          "internalType": "address",
          "name": "_owner",
          "type": "address"
        }
      ],
      "name": "checkStaked",
      "outputs": [
        {
          "internalType": "uint256",
          "name": "",
          "type": "uint256"
        }
      ],
      "stateMutability": "view",
      "type": "function"
    },
    {
      "inputs": [
        {
          "internalType": "uint256",
          "name": "_amount",
          "type": "uint256"
        }
      ],
      "name": "stakeToken",
      "outputs": [],
      "stateMutability": "payable",
      "type": "function"
    },
    {
      "inputs": [],
      "name": "token",
      "outputs": [
        {
          "internalType": "contract FlayerToken",
          "name": "",
          "type": "address"
        }
      ],
      "stateMutability": "view",
      "type": "function"
    },
    {
      "inputs": [],
      "name": "unStakeToken",
      "outputs": [],
      "stateMutability": "payable",
      "type": "function"
    }
  ],
  "bytecode": "0x608060405234801561001057600080fd5b50604051610e0d380380610e0d8339818101604052810190610032919061008d565b806000806101000a81548173ffffffffffffffffffffffffffffffffffffffff021916908373ffffffffffffffffffffffffffffffffffffffff16021790555050610111565b600081519050610087816100fa565b92915050565b60006020828403121561009f57600080fd5b60006100ad84828501610078565b91505092915050565b60006100c1826100da565b9050919050565b60006100d3826100b6565b9050919050565b600073ffffffffffffffffffffffffffffffffffffffff82169050919050565b610103816100c8565b811461010e57600080fd5b50565b610ced806101206000396000f3fe60806040526004361061003f5760003560e01c8063247f8e14146100445780634aa3f62414610081578063cda6b8471461008b578063fc0c546a146100a7575b600080fd5b34801561005057600080fd5b5061006b60048036038101906100669190610741565b6100d2565b60405161007891906108d0565b60405180910390f35b61008961011e565b005b6100a560048036038101906100a09190610793565b61038f565b005b3480156100b357600080fd5b506100bc6104ad565b6040516100c99190610895565b60405180910390f35b6000600160008373ffffffffffffffffffffffffffffffffffffffff1673ffffffffffffffffffffffffffffffffffffffff168152602001908152602001600020600001549050919050565b6000600160003373ffffffffffffffffffffffffffffffffffffffff1673ffffffffffffffffffffffffffffffffffffffff16815260200190815260200160002060000154116101a3576040517f08c379a000000000000000000000000000000000000000000000000000000000815260040161019a906108b0565b60405180910390fd5b60008054906101000a900473ffffffffffffffffffffffffffffffffffffffff1673ffffffffffffffffffffffffffffffffffffffff166340c10f19306101e9336104d1565b6040518363ffffffff1660e01b815260040161020692919061086c565b600060405180830381600087803b15801561022057600080fd5b505af1158015610234573d6000803e3d6000fd5b5050505060008054906101000a900473ffffffffffffffffffffffffffffffffffffffff1673ffffffffffffffffffffffffffffffffffffffff1663a9059cbb3361027e336104d1565b600160003373ffffffffffffffffffffffffffffffffffffffff1673ffffffffffffffffffffffffffffffffffffffff168152602001908152602001600020600001546102cb91906108fc565b6040518363ffffffff1660e01b81526004016102e892919061086c565b602060405180830381600087803b15801561030257600080fd5b505af1158015610316573d6000803e3d6000fd5b505050506040513d601f19601f8201168201806040525081019061033a919061076a565b50600160003373ffffffffffffffffffffffffffffffffffffffff1673ffffffffffffffffffffffffffffffffffffffff16815260200190815260200160002060008082016000905560018201600090555050565b604051806040016040528082815260200142815250600160003373ffffffffffffffffffffffffffffffffffffffff1673ffffffffffffffffffffffffffffffffffffffff168152602001908152602001600020600082015181600001556020820151816001015590505060008054906101000a900473ffffffffffffffffffffffffffffffffffffffff1673ffffffffffffffffffffffffffffffffffffffff166323b872dd3330846040518463ffffffff1660e01b815260040161045793929190610835565b602060405180830381600087803b15801561047157600080fd5b505af1158015610485573d6000803e3d6000fd5b505050506040513d601f19601f820116820180604052508101906104a9919061076a565b5050565b60008054906101000a900473ffffffffffffffffffffffffffffffffffffffff1681565b600080600290506000600160008573ffffffffffffffffffffffffffffffffffffffff1673ffffffffffffffffffffffffffffffffffffffff1681526020019081526020016000206001015490504262278d008261052f91906108fc565b1015801561054b57504262ed4e008261054891906108fc565b11155b80156105665750426301da9c008261056391906108fc565b11155b1561057457600591506105cc565b4262ed4e008261058491906108fc565b101580156105a15750426301da9c008261059e91906108fc565b11155b156105af57600591506105cb565b426301da9c00826105c091906108fc565b106105ca57600f91505b5b5b600060648361ffff16600160008873ffffffffffffffffffffffffffffffffffffffff1673ffffffffffffffffffffffffffffffffffffffff1681526020019081526020016000206000015460008054906101000a900473ffffffffffffffffffffffffffffffffffffffff1673ffffffffffffffffffffffffffffffffffffffff1663313ce5676040518163ffffffff1660e01b815260040160206040518083038186803b15801561067e57600080fd5b505afa158015610692573d6000803e3d6000fd5b505050506040513d601f19601f820116820180604052508101906106b691906107bc565b600a6106c291906109d6565b6106cc9190610af4565b6106d69190610af4565b6106e09190610952565b9050809350505050919050565b6000813590506106fc81610c5b565b92915050565b60008151905061071181610c72565b92915050565b60008135905061072681610c89565b92915050565b60008151905061073b81610ca0565b92915050565b60006020828403121561075357600080fd5b6000610761848285016106ed565b91505092915050565b60006020828403121561077c57600080fd5b600061078a84828501610702565b91505092915050565b6000602082840312156107a557600080fd5b60006107b384828501610717565b91505092915050565b6000602082840312156107ce57600080fd5b60006107dc8482850161072c565b91505092915050565b6107ee81610b4e565b82525050565b6107fd81610ba3565b82525050565b60006108106020836108eb565b915061081b82610c32565b602082019050919050565b61082f81610b8c565b82525050565b600060608201905061084a60008301866107e5565b61085760208301856107e5565b6108646040830184610826565b949350505050565b600060408201905061088160008301856107e5565b61088e6020830184610826565b9392505050565b60006020820190506108aa60008301846107f4565b92915050565b600060208201905081810360008301526108c981610803565b9050919050565b60006020820190506108e56000830184610826565b92915050565b600082825260208201905092915050565b600061090782610b8c565b915061091283610b8c565b9250827fffffffffffffffffffffffffffffffffffffffffffffffffffffffffffffffff0382111561094757610946610bc7565b5b828201905092915050565b600061095d82610b8c565b915061096883610b8c565b92508261097857610977610bf6565b5b828204905092915050565b6000808291508390505b60018511156109cd578086048111156109a9576109a8610bc7565b5b60018516156109b85780820291505b80810290506109c685610c25565b945061098d565b94509492505050565b60006109e182610b8c565b91506109ec83610b96565b9250610a197fffffffffffffffffffffffffffffffffffffffffffffffffffffffffffffffff8484610a21565b905092915050565b600082610a315760019050610aed565b81610a3f5760009050610aed565b8160018114610a555760028114610a5f57610a8e565b6001915050610aed565b60ff841115610a7157610a70610bc7565b5b8360020a915084821115610a8857610a87610bc7565b5b50610aed565b5060208310610133831016604e8410600b8410161715610ac35782820a905083811115610abe57610abd610bc7565b5b610aed565b610ad08484846001610983565b92509050818404811115610ae757610ae6610bc7565b5b81810290505b9392505050565b6000610aff82610b8c565b9150610b0a83610b8c565b9250817fffffffffffffffffffffffffffffffffffffffffffffffffffffffffffffffff0483118215151615610b4357610b42610bc7565b5b828202905092915050565b6000610b5982610b6c565b9050919050565b60008115159050919050565b600073ffffffffffffffffffffffffffffffffffffffff82169050919050565b6000819050919050565b600060ff82169050919050565b6000610bae82610bb5565b9050919050565b6000610bc082610b6c565b9050919050565b7f4e487b7100000000000000000000000000000000000000000000000000000000600052601160045260246000fd5b7f4e487b7100000000000000000000000000000000000000000000000000000000600052601260045260246000fd5b60008160011c9050919050565b7f596f7520646f6e2774206861766520616e7920746f6b656e20737461636b6564600082015250565b610c6481610b4e565b8114610c6f57600080fd5b50565b610c7b81610b60565b8114610c8657600080fd5b50565b610c9281610b8c565b8114610c9d57600080fd5b50565b610ca981610b96565b8114610cb457600080fd5b5056fea2646970667358221220d2bdc9f6ad43567fb61f2bfea093b3451b20c54557f28c55a23b01b000210def64736f6c63430008040033",
  "linkReferences": {},
  "deployedLinkReferences": {}
}