{
  "_format": "hh-sol-artifact-1",
  "contractName": "StakeFlayer",
  "sourceName": "contracts/StakeFlayer.sol",
  "abi": [
    {
      "inputs": [
        {
          "internalType": "contract FlayerToken",
          "name": "_tokenAddress",
          "type": "address"
        }
      ],
      "stateMutability": "nonpayable",
      "type": "constructor"
    },
    {
      "inputs": [
        {
          "internalType": "uint256",
          "name": "_amount",
          "type": "uint256"
        }
      ],
      "name": "stakeToken",
      "outputs": [],
      "stateMutability": "payable",
      "type": "function"
    },
    {
      "inputs": [],
      "name": "token",
      "outputs": [
        {
          "internalType": "contract FlayerToken",
          "name": "",
          "type": "address"
        }
      ],
      "stateMutability": "view",
      "type": "function"
    },
    {
      "inputs": [],
      "name": "unStakeToken",
      "outputs": [],
      "stateMutability": "payable",
      "type": "function"
    }
  ],
  "bytecode": "0x608060405234801561001057600080fd5b50604051610d09380380610d098339818101604052810190610032919061008d565b806000806101000a81548173ffffffffffffffffffffffffffffffffffffffff021916908373ffffffffffffffffffffffffffffffffffffffff16021790555050610111565b600081519050610087816100fa565b92915050565b60006020828403121561009f57600080fd5b60006100ad84828501610078565b91505092915050565b60006100c1826100da565b9050919050565b60006100d3826100b6565b9050919050565b600073ffffffffffffffffffffffffffffffffffffffff82169050919050565b610103816100c8565b811461010e57600080fd5b50565b610be9806101206000396000f3fe6080604052600436106100345760003560e01c80634aa3f62414610039578063cda6b84714610043578063fc0c546a1461005f575b600080fd5b61004161008a565b005b61005d600480360381019061005891906106c1565b6102fb565b005b34801561006b57600080fd5b50610074610419565b60405161008191906107c3565b60405180910390f35b6000600160003373ffffffffffffffffffffffffffffffffffffffff1673ffffffffffffffffffffffffffffffffffffffff168152602001908152602001600020600001541161010f576040517f08c379a0000000000000000000000000000000000000000000000000000000008152600401610106906107de565b60405180910390fd5b60008054906101000a900473ffffffffffffffffffffffffffffffffffffffff1673ffffffffffffffffffffffffffffffffffffffff166340c10f19306101553361043d565b6040518363ffffffff1660e01b815260040161017292919061079a565b600060405180830381600087803b15801561018c57600080fd5b505af11580156101a0573d6000803e3d6000fd5b5050505060008054906101000a900473ffffffffffffffffffffffffffffffffffffffff1673ffffffffffffffffffffffffffffffffffffffff1663a9059cbb336101ea3361043d565b600160003373ffffffffffffffffffffffffffffffffffffffff1673ffffffffffffffffffffffffffffffffffffffff16815260200190815260200160002060000154610237919061080f565b6040518363ffffffff1660e01b815260040161025492919061079a565b602060405180830381600087803b15801561026e57600080fd5b505af1158015610282573d6000803e3d6000fd5b505050506040513d601f19601f820116820180604052508101906102a69190610698565b50600160003373ffffffffffffffffffffffffffffffffffffffff1673ffffffffffffffffffffffffffffffffffffffff16815260200190815260200160002060008082016000905560018201600090555050565b604051806040016040528082815260200142815250600160003373ffffffffffffffffffffffffffffffffffffffff1673ffffffffffffffffffffffffffffffffffffffff168152602001908152602001600020600082015181600001556020820151816001015590505060008054906101000a900473ffffffffffffffffffffffffffffffffffffffff1673ffffffffffffffffffffffffffffffffffffffff166323b872dd3330846040518463ffffffff1660e01b81526004016103c393929190610763565b602060405180830381600087803b1580156103dd57600080fd5b505af11580156103f1573d6000803e3d6000fd5b505050506040513d601f19601f820116820180604052508101906104159190610698565b5050565b60008054906101000a900473ffffffffffffffffffffffffffffffffffffffff1681565b600080600290506000600160008573ffffffffffffffffffffffffffffffffffffffff1673ffffffffffffffffffffffffffffffffffffffff1681526020019081526020016000206001015490504262278d008261049b919061080f565b101580156104b757504262ed4e00826104b4919061080f565b11155b80156104d25750426301da9c00826104cf919061080f565b11155b156104e05760059150610538565b4262ed4e00826104f0919061080f565b1015801561050d5750426301da9c008261050a919061080f565b11155b1561051b5760059150610537565b426301da9c008261052c919061080f565b1061053657600f91505b5b5b600060648361ffff16600160008873ffffffffffffffffffffffffffffffffffffffff1673ffffffffffffffffffffffffffffffffffffffff1681526020019081526020016000206000015460008054906101000a900473ffffffffffffffffffffffffffffffffffffffff1673ffffffffffffffffffffffffffffffffffffffff1663313ce5676040518163ffffffff1660e01b815260040160206040518083038186803b1580156105ea57600080fd5b505afa1580156105fe573d6000803e3d6000fd5b505050506040513d601f19601f8201168201806040525081019061062291906106ea565b600a61062e91906108e9565b6106389190610a07565b6106429190610a07565b61064c9190610865565b9050809350505050919050565b60008151905061066881610b6e565b92915050565b60008135905061067d81610b85565b92915050565b60008151905061069281610b9c565b92915050565b6000602082840312156106aa57600080fd5b60006106b884828501610659565b91505092915050565b6000602082840312156106d357600080fd5b60006106e18482850161066e565b91505092915050565b6000602082840312156106fc57600080fd5b600061070a84828501610683565b91505092915050565b61071c81610a61565b82525050565b61072b81610ab6565b82525050565b600061073e6020836107fe565b915061074982610b45565b602082019050919050565b61075d81610a9f565b82525050565b60006060820190506107786000830186610713565b6107856020830185610713565b6107926040830184610754565b949350505050565b60006040820190506107af6000830185610713565b6107bc6020830184610754565b9392505050565b60006020820190506107d86000830184610722565b92915050565b600060208201905081810360008301526107f781610731565b9050919050565b600082825260208201905092915050565b600061081a82610a9f565b915061082583610a9f565b9250827fffffffffffffffffffffffffffffffffffffffffffffffffffffffffffffffff0382111561085a57610859610ada565b5b828201905092915050565b600061087082610a9f565b915061087b83610a9f565b92508261088b5761088a610b09565b5b828204905092915050565b6000808291508390505b60018511156108e0578086048111156108bc576108bb610ada565b5b60018516156108cb5780820291505b80810290506108d985610b38565b94506108a0565b94509492505050565b60006108f482610a9f565b91506108ff83610aa9565b925061092c7fffffffffffffffffffffffffffffffffffffffffffffffffffffffffffffffff8484610934565b905092915050565b6000826109445760019050610a00565b816109525760009050610a00565b81600181146109685760028114610972576109a1565b6001915050610a00565b60ff84111561098457610983610ada565b5b8360020a91508482111561099b5761099a610ada565b5b50610a00565b5060208310610133831016604e8410600b84101617156109d65782820a9050838111156109d1576109d0610ada565b5b610a00565b6109e38484846001610896565b925090508184048111156109fa576109f9610ada565b5b81810290505b9392505050565b6000610a1282610a9f565b9150610a1d83610a9f565b9250817fffffffffffffffffffffffffffffffffffffffffffffffffffffffffffffffff0483118215151615610a5657610a55610ada565b5b828202905092915050565b6000610a6c82610a7f565b9050919050565b60008115159050919050565b600073ffffffffffffffffffffffffffffffffffffffff82169050919050565b6000819050919050565b600060ff82169050919050565b6000610ac182610ac8565b9050919050565b6000610ad382610a7f565b9050919050565b7f4e487b7100000000000000000000000000000000000000000000000000000000600052601160045260246000fd5b7f4e487b7100000000000000000000000000000000000000000000000000000000600052601260045260246000fd5b60008160011c9050919050565b7f596f7520646f6e2774206861766520616e7920746f6b656e20737461636b6564600082015250565b610b7781610a73565b8114610b8257600080fd5b50565b610b8e81610a9f565b8114610b9957600080fd5b50565b610ba581610aa9565b8114610bb057600080fd5b5056fea26469706673582212205ae19210cb7ac5e9a6293406512bf10118fdcce7718f9eb9b79fc6b3fbcfdb0764736f6c63430008040033",
  "linkReferences": {},
  "deployedLinkReferences": {}
}